:020000040000FA
:100000000C9462000C948A000C948A000C948A0070
:100010000C948A000C948A000C948A000C948A0038
:100020000C948A000C948A000C948A000C948A0028
:100030000C948A000C948A000C948A000C948A0018
:100040000C9461060C948A000C94D1060C94AB06B7
:100050000C948A000C948A000C948A000C948A00F8
:100060000C948A000C948A000000000024002700F1
:100070002A0000000000250028002B0000000000DE
:1000800023002600290004040404040404040202DA
:100090000202020203030303030301020408102007
:1000A0004080010204081020010204081020000012
:1000B0000008000201000003040700000000000027
:1000C0000000030711241FBECFEFD8E0DEBFCDBF75
:1000D00012E0A0E0B1E0EAE2FFE102C005900D927B
:1000E000A632B107D9F723E0A6E2B2E001C01D9223
:1000F000A336B207E1F710E0C2E6D0E004C02197D2
:10010000FE010E946B0FC136D107C9F70E94AC07F0
:100110000C94930F0C9400000F931F93CF93DF93D5
:10012000C0912E03EFE2F3E0CD3211F0EEE2F3E006
:100130008F0120E030E0A901D801DD918D0180ED33
:100140008D0F8A3090F4AAE0B0E00E94710F2D2F3D
:10015000DD0F330B440B550B260F371F481F591F5C
:100160002053310941095109E7CFA4E6B0E00E94CC
:10017000710FAB01BC01DF01819190ED980F9A30B6
:10018000D0F38E3259F511968C91119790ED980F0E
:100190009A3020F5082E000C990BC0972AE0289F72
:1001A0008001299F100D1124012E000C220B330B0E
:1001B000400F511F621F731F12968C9190ED980F84
:1001C0009A3060F4082E000C990BC097092E000C91
:1001D000AA0BBB0B480F591F6A1F7B1FCD3239F486
:1001E00070956095509541955F4F6F4F7F4FCB0154
:1001F000BA01DF91CF911F910F9108954F925F92B5
:100200006F927F928F929F92AF92BF92CF92DF9226
:10021000EF92FF921F93CF93DF93CEE2D3E0FE01E4
:10022000C12CD12C7601119180ED810F8A30A8F478
:10023000AAE0B0E0A70196010E94710FC12E110F34
:10024000DD08EE08FF08C60ED71EE81EF91E80E383
:10025000C81AD108E108F108E6CFC701B60124E6C3
:1002600030E040E050E00E94490F9B01AC0160EAA1
:1002700076E881E090E00E94390F4B015C019E011D
:10028000899190ED980F9A30D0F38E3221F5E901E3
:10029000219680E1482E87E2582E612C712CA9917D
:1002A00080ED8A0F8A30B8F40A2E000CBB0BD09771
:1002B000A30192010E947C0F860E971EA81EB91EF4
:1002C000C301B2012AE030E040E050E00E94490F53
:1002D00029013A01E4CFC701B60124E630E040E04D
:1002E00050E00E94490F60E472E48FE090E00E94C9
:1002F000390F6B017C01C501B4016D5F7F4F8F4FDA
:100300009F4F26E030E040E050E00E94490FC701D7
:10031000B601620F731F841F951FDF91CF911F914C
:10032000FF90EF90DF90CF90BF90AF909F908F9015
:100330007F906F905F904F900895833081F028F404
:10034000813099F08230A9F008958730A9F0883083
:10035000C9F08430B1F4809180008F7D03C080911A
:1003600080008F7780938000089584B58F7784BD57
:10037000089584B58F7DFBCF8091B0008F778093F7
:10038000B00008958091B0008F7DF9CFCF93DF93B7
:10039000282F30E0F901E255FF4F8491F901E6562C
:1003A000FF4FD491F901EA57FF4FC491CC23A1F03C
:1003B00081110E949D01EC2FF0E0EE0FFF1FE45829
:1003C000FF4FA591B491EC91ED2381E090E009F409
:1003D00080E0DF91CF91089580E090E0FACF1F9305
:1003E000CF93DF93282F30E0F901E255FF4F84913E
:1003F000F901E656FF4FD491F901EA57FF4FC49136
:10040000CC23A9F0162F81110E949D01EC2FF0E062
:10041000EE0FFF1FEE58FF4FA591B4918FB7F894E0
:10042000EC91111108C0D095DE23DC938FBFDF91D2
:10043000CF911F910895DE2BF8CFCF93DF9390E0FB
:10044000FC01E656FF4F24918A579F4FFC0184918F
:100450008823C9F090E0880F991FFC01E859FF4FED
:10046000A591B491FC01EE58FF4FC591D491611153
:100470000DC09FB7F8948C91209582238C9388812E
:10048000282328839FBFDF91CF910895623051F4D4
:100490009FB7F8943C91822F809583238C93E881B9
:1004A0002E2BEFCF8FB7F894EC912E2B2C938FBF80
:1004B000EACF3FB7F8948091370290913802A0912B
:1004C0003902B0913A0226B5A89B05C02F3F19F01A
:1004D0000196A11DB11D3FBFBA2FA92F982F8827C4
:1004E000BC01CD01620F711D811D911D42E0660F9F
:1004F000771F881F991F4A95D1F708958F929F9271
:10050000AF92BF92CF92DF92EF92FF924B015C01CC
:100510000E9459026B017C010E9459026C197D09ED
:100520008E099F09683E734081059105A8F321E07B
:10053000821A9108A108B10888EEC80E83E0D81E7F
:10054000E11CF11C81149104A104B10429F7FF906E
:10055000EF90DF90CF90BF90AF909F908F900895D5
:10056000AF92BF92CF92DF92EF92FF920F931F93C1
:10057000CF93DF936C017B018B01040F151FEB01FF
:100580005E01AE18BF08C017D10759F06991D601B6
:10059000ED91FC910190F081E02DC6010995892B28
:1005A00079F7C501DF91CF911F910F91FF90EF90E7
:1005B000DF90CF90BF90AF900895FC01538D448D94
:1005C000252F30E0842F90E0821B930B541710F0FE
:1005D000CF96089501970895FC01918D828D98170B
:1005E00061F0A28DAE0FBF2FB11D5D968C91928DE3
:1005F0009F5F9F73928F90E008958FEF9FEF089514
:10060000FC01918D828D981731F0828DE80FF11DDC
:10061000858D90E008958FEF9FEF0895FC01918DF7
:10062000228D892F90E0805C9F4F821B91098F73F0
:10063000992708958BE392E00E940E0321E0892B15
:1006400009F420E0822F089580E090E0892B29F0C2
:100650000E941A0381110C9400000895FC01A48DDE
:10066000A80FB92FB11DA35ABF4F2C91848D90E0D4
:1006700001968F739927848FA689B7892C93A089B7
:10068000B1898C91837080648C93938D848D981341
:1006900006C00288F389E02D80818F7D80830895D4
:1006A000EF92FF920F931F93CF93DF93EC0181E0C2
:1006B000888F9B8D8C8D98131AC0E889F989808169
:1006C00085FF15C09FB7F894EE89FF896083E8899C
:1006D000F98980818370806480839FBF81E090E08E
:1006E000DF91CF911F910F91FF90EF900895F62E1B
:1006F0000B8D10E00F5F1F4F0F731127E02E8C8DB5
:100700008E110CC00FB607FCFACFE889F9898081F9
:1007100085FFF5CFCE010E942E03F1CFEB8DEC0FBC
:10072000FD2FF11DE35AFF4FF0829FB7F8940B8F16
:10073000EA89FB8980818062CFCFCF93DF93EC0180
:10074000888D8823B9F0AA89BB89E889F9898C91B9
:1007500085FD03C0808186FD0DC00FB607FCF7CF75
:100760008C9185FFF2CF808185FFEDCFCE010E9475
:100770002E03E9CFDF91CF910895089590E080E0B6
:100780000895CF93DF93EC0160E08E810E94EF012A
:1007900061E08E810E94EF0160E08E810E94EF0196
:1007A0008BE891E00197F1F7DF91CF910895CF9217
:1007B000DF92EF92FF920F931F93CF93DF936C0121
:1007C0007C0187E0E80EF11CD0E0C0E0062F10E0CD
:1007D000B8010C2E02C0759567950A94E2F7617016
:1007E000F70181917F010E94EF012196C430D1056C
:1007F00079F7C601DF91CF911F910F91FF90EF9094
:10080000DF90CF900C94C103CF92DF92EF92FF92D2
:100810000F931F93CF93DF93EC01F62E642F8C81FF
:100820000E94EF018D818F3F19F060E00E94EF017F
:100830000F2D10E08F8584FF25C06E0187E0C80E64
:10084000D11CF12CE12CB8010E2C02C075956795D6
:100850000A94E2F76170F60181916F010E94EF0145
:10086000FFEFEF1AFF0A88E0E816F10461F7CE0106
:10087000DF91CF911F910F91FF90EF90DF90CF907C
:100880000C94C103B80184E0759567958A95E1F7EA
:10089000CE010E94D7036F2DCE01DF91CF911F9122
:1008A0000F91FF90EF90DF90CF900C94D70340E032
:1008B000682F8BE493E00C94040481E00E945704B9
:1008C0008BE39FE10197F1F70895CF93DF93823097
:1008D00029F490915A03986090935A0380935E0391
:1008E00010925F0380E48093600380E18093610352
:1008F00080E58093620361E080914F030E941D02B6
:10090000809150038F3F19F061E00E941D0261E069
:10091000809151030E941D02CBE4D3E09E012B5431
:10092000334080915A0384FD0BC084E090E021960F
:100930002817390744F461E08E810E941D02EECF32
:1009400088E090E0F4CF8BE39DE00197F1F760E061
:1009500080914F030E94EF0160E0809151030E945B
:10096000EF01809150038F3F19F060E00E94EF018A
:1009700080915A0384FD34C063E08BE493E00E94CD
:10098000D703CBE4D6E4CE010197F1F763E08BE423
:1009900093E00E94D7032197F1F763E08BE493E0A3
:1009A0000E94D70383E592E00197F1F762E08BE4C0
:1009B00093E00E94D70380915A0380620E945704FB
:1009C00084E080935B038CE00E9457040E945D04E6
:1009D00082E080935C0386E0DF91CF910C94570412
:1009E00080620E9457048BE496E40197F1F78091AE
:1009F0005A0380620E94570483E592E00197F1F761
:100A000080915A0380620E945704D5CFE0915E0323
:100A1000E33048F4E150F0E0E55BFC4F84898D5F02
:100A200080680C945704E2E0F6CF41E00E94040491
:100A300081E090E00895FB0101900020E9F73197F3
:100A4000AF01461B570BDC01ED91FC910280F38155
:100A5000E02D09948F929F92AF92BF920F931F93B4
:100A6000CF93DF93CDB7DEB7A1970FB6F894DEBF73
:100A70000FBECDBF19A2423008F44AE08E010F5DCF
:100A80001F4F842E912CB12CA12CA50194010E9402
:100A9000490FE62FB901CA01EA3004F5E05DD8013B
:100AA000EE938D01232B242B252B79F790E080E00A
:100AB000109729F0BD018BE392E00E941B05A196DF
:100AC0000FB6F894DEBF0FBECDBFDF91CF911F915F
:100AD0000F91BF90AF909F908F900895E95CDFCF0A
:100AE000CF93DF93BC018BE392E00E941B05EC01E6
:100AF0006EE171E08BE392E00E941B058C0F9D1F5D
:100B0000DF91CF9108954F925F926F927F928F9273
:100B10009F92AF92BF92CF92DF92EF92FF920F938C
:100B20001F93CF936B017C01742EAC019B010E943B
:100B3000340F61E271E0811126C046015701E8944B
:100B4000B7F82FEF3FEF4FE75FE7C501B4010E9411
:100B5000340F81110CC02FEF3FEF4FE75FE7C50166
:100B6000B4010E946A0D65E271E0181664F02FEF7F
:100B70003FEF4FE75FE4C701B6010E94C20E1816AF
:100B8000ACF469E271E08BE392E0CF911F910F9199
:100B9000FF90EF90DF90CF90BF90AF909F908F909D
:100BA0007F906F905F904F900C941B052FEF3FEF5D
:100BB0004FE75FECC701B6010E946A0D87FDE1CFE8
:100BC00020E030E0A901C701B6010E946A0D10E0E3
:100BD00000E087FF0AC06DE28BE392E00E945003C1
:100BE0008C01F7FAF094F7F8F094C0E060E070E060
:100BF00080E09FE37C1641F020E030E040E251E4E9
:100C00000E946F0DCF5FF6CFA70196010E94FE0CE8
:100C10002B013C010E94E10D4B015C014AE00E9466
:100C20002A057C01E00EF11ECC23C1F1C501B401FF
:100C30000E94100E9B01AC01C301B2010E94FD0C89
:100C40004B015C016EE28BE392E00E945003E80EE0
:100C5000F91EC15018F120E030E040E251E4C50136
:100C6000B4010E94C70E2B013C010E94E10D4B0113
:100C7000B12CA12C4AE0C501B4010E942A05E80E5E
:100C8000F91EC501B4010E94100E9B01AC01C30105
:100C9000B2010E94FD0C4B015C01DBCFC701CF917B
:100CA0001F910F91FF90EF90DF90CF90BF90AF908A
:100CB0009F908F907F906F905F904F9008950C94CD
:100CC0001B051F920F920FB60F9211242F933F9383
:100CD0008F939F93AF93BF9380913302909134028F
:100CE000A0913502B09136023091320223E0230FF9
:100CF0002D3758F50196A11DB11D20933202809326
:100D0000330290933402A0933502B093360280915F
:100D1000370290913802A0913902B0913A020196BF
:100D2000A11DB11D8093370290933802A093390220
:100D3000B0933A02BF91AF919F918F913F912F91C4
:100D40000F900FBE0F901F90189526E8230F029664
:100D5000A11DB11DD2CF1F920F920FB60F92112479
:100D60002F933F934F935F936F937F938F939F93B3
:100D7000AF93BF93EF93FF938BE392E00E942E0318
:100D8000FF91EF91BF91AF919F918F917F916F9163
:100D90005F914F913F912F910F900FBE0F901F9039
:100DA00018951F920F920FB60F9211242F938F93C5
:100DB0009F93EF93FF93E0914B02F0914C0280815F
:100DC000E0915102F091520282FD1BC0908180910E
:100DD00054028F5F8F7320915502821741F0E0918A
:100DE0005402F0E0E55CFD4F958F80935402FF9133
:100DF000EF919F918F912F910F900FBE0F901F90A9
:100E000018958081F4CFEBE3F2E01382128288EE32
:100E100093E0A0E0B0E084839583A683B78384E069
:100E200091E09183808385EC90E09587848784ECC2
:100E300090E09787868780EC90E0918B808B81ECA7
:100E400090E0938B828B82EC90E0958B848B86EC88
:100E500090E0978B868B118E128E138E148EEBE49E
:100E6000F3E01382128286E191E09183808384E033
:100E700084838FEF858385E0868386E0878387E0A0
:100E8000808788E0818789E08287138614861586AB
:100E90001686178681E00E946504E8EDF2E04FEFC8
:100EA0005FEFBA014083518362837383108611869A
:100EB000128613868FEF99ECAAE9BBE3808B918BA6
:100EC000A28BB38B808F918FA28FB38F80A391A3BE
:100ED000A2A3B3A380A791A7A2A7B3A780AB91AB0E
:100EE000A2ABB3AB40AF51AF62AF73AF8FEF90E047
:100EF000909319038093180340931C0350931D0390
:100F000060931E0370931F034093240350932503A3
:100F1000609326037093270310922C0310922D03E5
:100F200082E080933D0310923E0310923F031092A3
:100F30004003109241031092420310924303109217
:100F400044031092460310924503109248031092F6
:100F5000470310922E030895789484B5826084BD6F
:100F600084B5816084BD85B5826085BD85B58160AD
:100F700085BD80916E00816080936E00109281002B
:100F800080918100826080938100809181008160E6
:100F900080938100809180008160809380008091A7
:100FA000B10084608093B1008091B0008160809333
:100FB000B00080917A00846080937A0080917A00FA
:100FC000826080937A0080917A00816080937A00B9
:100FD00080917A00806880937A001092C10061E06D
:100FE00082E00E941D0261E083E00E941D0260E039
:100FF0008AE00E941D0260E08BE00E941D0260E01A
:101000008CE00E941D0262E08DE00E941D02E091D2
:101010004B02F0914C0282E08083E0914702F09114
:1010200048021082E0914902F0914A028FEC8083DD
:1010300010925302E0914F02F091500286E08083BB
:10104000E0914D02F0914E02808180618083E091B9
:101050004D02F0914E02808188608083E0914D02C4
:10106000F0914E02808180688083E0914D02F09182
:101070004E0280818F7D808382E00E9465046DE254
:1010800071E08BE493E00E945F060E94060560E435
:1010900071E08BE493E00E945F0600E010E08AE0DC
:1010A0000E94C601EC0181E0209709F480E0809362
:1010B000310264E670E080E090E00E947E02CD2B79
:1010C00009F43FC460E083E00E94EF0168EC70E047
:1010D00080E090E00E947E020E945D0467E471E07F
:1010E0008BE493E00E945F060E9406056EEA71E0C1
:1010F0008BE493E00E945F0664EF71E080E090E093
:101100000E947E028BE00E94C601EC0181E02097E4
:1011100009F480E08093300264E670E080E090E0C3
:101120000E947E02CD2B09F0E3C360E083E00E94C1
:10113000EF0168EC70E080E090E00E947E020E9487
:101140005D0461E571E08BE493E00E945F060E941C
:1011500006056EEA71E08BE493E00E945F0664EF9F
:1011600071E080E090E00E947E0261E082E00E94F7
:10117000EF0168EC70E080E090E00E947E020E9447
:101180005D046DE571E08BE493E00E945F0664EF1F
:1011900071E080E090E00E947E028CE00E94C60137
:1011A0008C0181E00115110509F480E080932F0284
:1011B0008DE00E94C601EC0181E0209709F480E0F7
:1011C00080932E0264E670E080E090E00E947E0250
:1011D000012B19F3CD2B09F07EC30E945D0462EF51
:1011E00071E08BE493E00E945F060E9406056DE6C5
:1011F00071E08BE493E00E945F0664EF71E080E0B1
:1012000090E00E947E0260E082E00E94EF0189E7A8
:1012100091E00E94700564E670E080E090E00E943A
:101220007E0283E891E00E94700564E670E080E051
:1012300090E00E947E028CE991E00E94700587EBAD
:1012400091E00E947005D2E011E08BE392E00E94F1
:101250000E03892BD1F38BE392E00E94EC02C82F9E
:101260008091410390914203A0914303B0914403C4
:101270000196A11DB11D8093410390934203A09359
:101280004303B0934403C43209F404C3E0913F0321
:10129000C5324CF4CA3019F0CD3009F008C3EF3034
:1012A00068F000E0CBC0CA32D1F3CC3209F0FFC203
:1012B00080912C038C2780932C03F1CF90913E03D7
:1012C000F0E0E25DFC4F108200912D03002309F451
:1012D0009CC120912E03822F022E000C990B3FEB14
:1012E000320F363008F01DC1C7978295807F9091EC
:1012F0002F03292F092E000C330B4FEB490F4630DB
:1013000008F017C127533109820F90912C038913DC
:1013100072C100914003002321F280914503909116
:1013200046030196909346038093450380912003E2
:1013300090912103A0912203B091230380931C0379
:1013400090931D03A0931E03B0931F038091280365
:1013500090912903A0912A03B0912B038093240339
:1013600090932503A0932603B093270380913D0318
:10137000882309F4E7C0813009F060C08091DC0265
:101380009091DD02A091DE02B091DF028093D8023D
:101390009093D902A093DA02B093DB028091E40229
:1013A0009091E502A091E602B091E7028093E002FD
:1013B0009093E102A093E202B093E3028091EC02E9
:1013C0009091ED02A091EE02B091EF028093E802BD
:1013D0009093E902A093EA02B093EB028091F402A9
:1013E0009091F502A091F602B091F7028093F0027D
:1013F0009093F102A093F202B093F3028091040360
:1014000090910503A0910603B09107038093000318
:1014100090930103A0930203B093030380910C0304
:1014200090910D03A0910E03B0910F0380930803D8
:1014300090930903A0930A03B0930B0380913E039A
:101440008F5F80933E0310923F0381E0CA3209F020
:1014500080E080932D03002309F4F7CE8091E80209
:101460009091E902A091EA02B091EB0280932A02E6
:1014700090932B02A0932C02B0932D028091F00246
:101480009091F102A091F202B091F30280932602B2
:1014900090932702A0932802B093290289ED91E04E
:1014A0000E94700564EE71E08BE392E00E945F069B
:1014B00060912A0270912B0280912C0290912D0252
:1014C0000E94120E2DEB37E346E855E30E94C70E4B
:1014D00048E00E9483056EE171E08BE392E00E9498
:1014E0001B0569EE71E08BE392E00E945F0660915C
:1014F00026027091270280912802909129020E9471
:10150000120E2DEB37E346E855E30E94C70E48E084
:101510000E9483056EE171E08BE392E00E941B055F
:101520009FCE2156263018F487559109DECEC097FC
:10153000DCCE9156963018F427553109E5CE20536C
:101540003109E2CE8091FC029091FD02A091FE0251
:10155000B091FF028093F8029093F902A093FA02EF
:10156000B093FB028091DC029091DD02A091DE023B
:10157000B091DF028093D8029093D902A093DA024F
:10158000B093DB028091EC029091ED02A091EE020B
:10159000B091EF028093E8029093E902A093EA02EF
:1015A000B093EB028091F4029091F502A091F602C3
:1015B000B091F7028093F0029093F102A093F202AF
:1015C000B093F30280911A0390911B039093190337
:1015D000809318038091140390911503A091160332
:1015E000B09117038093100390931103A0931203FB
:1015F000B093130323CF8091470390914803019642
:1016000090934803809347034CCE91111CC0AEE2E7
:10161000B3E04DEC51E09D01F90181919F018823D8
:1016200009F4BFC1FA019191AF018917A9F3E3ED64
:10163000F1E08D91882309F4B7C191918917C9F31D
:10164000D0933D03FBCEE0913D03E23009F429CE77
:1016500080912E03882309F424CE20E2E29FF0013A
:101660001124E92B3197E932F10508F0E7CEE55C6A
:10167000F44F0C946B0F810BA50BC30BDE0BE90B26
:10168000230C2A0C340C3F0C1E0A1E0A1E0A1E0ACA
:101690001E0A1E0A1E0A1E0A1E0A1E0A1E0A1E0A0A
:1016A0001E0A1E0A1E0A1E0A1E0A1E0A1E0A1E0AFA
:1016B0001E0A1E0A1E0A810B9F0BA50BC30BDE0B15
:1016C000E90B040C0F0C640BEEE2F3E020E030E0D9
:1016D000A901F19080ED8F0D8A3008F0ABC0AAE02F
:1016E000B0E00E94710F2F2DFF0C330B440B550BF4
:1016F000260F371F481F591F20533109410951092F
:10170000E8CF0E948C006093DC027093DD0280932E
:10171000DE029093DF022FB7F8948091330290910C
:101720003402A0913502B09136022FBF809320037E
:1017300090932103A0932203B09323037FCE91E0E3
:10174000813409F484C090E082C00E94FE0060935E
:10175000EC027093ED028093EE029093EF022FB7AC
:10176000F8948091330290913402A0913502B091A7
:1017700036022FBF8093280390932903A0932A0356
:10178000B0932B035BCE833509F08BCD8091EC02B7
:101790009091ED02A091EE02B091EF02B095A0956C
:1017A000909581959F4FAF4FBF4F8093EC029093E0
:1017B000ED02A093EE02B093EF0240CE0E94FE0035
:1017C0006093F4027093F5028093F6029093F7020F
:1017D00035CE873509F065CD8091F4029091F50200
:1017E000A091F602B091F702B095A09590958195E1
:1017F0009F4FAF4FBF4F8093F4029093F502A09399
:10180000F602B093F7021ACE0E948C006093040394
:101810007093050380930603909307030FCE0E94F5
:101820008C0060930C0370930D0380930E039093D0
:101830000F0304CE2093E4023093E5024093E602C6
:101840005093E702FBCD91E081330CF47CCF909371
:101850004003F4CD8EE293E00E94D70C9927909339
:101860001B0380931A03EACD0E948C00609314033B
:10187000709315038093160390931703DFCD0E9496
:101880008C006093FC027093FD028093FE029093A3
:10189000FF02D4CD10923F0310923E0310922C030E
:1018A000D0933D0310922D0310924003CECCEE3026
:1018B00040F481E08E0F80933F03F0E0E25DFC4F47
:1018C000C08380912D038111C0CC80912C03C82747
:1018D000C0932C03BACC0E945D046EEE71E08BE4E1
:1018E00093E00E945F060E94060564E072E04BCC24
:1018F0000E945D0460E172E08BE493E00E945F0669
:101900000E9406056EEA71E08BE493E00E945F0698
:1019100064EF71E080E090E00E947E0260E082E08F
:101920000E94EF0168EC70E080E090E00E947E028F
:1019300061E083E00E94EF0168EC70E080E090E0FD
:10194000DFCB0E945D0467E471E08BE493E00E94CA
:101950005F060E94060569E172E08BE493E00E9455
:101960005F0660E082E00E94EF0168EC70E080E0DA
:1019700090E00E947E0261E083E00E94EF0168EC4B
:1019800070E080E090E00E947E020115110509F4EC
:1019900086CB0E941A03882309F481CB0E940000A1
:1019A0007ECB10933D034ACD10923D0347CDFC0101
:1019B00088279927E89421912032E9F3293010F003
:1019C0002E30C8F32B3241F02D3239F4689404C024
:1019D0000E94F50C820F911D219120532A30C0F3F3
:1019E0001EF4909581959F4F08957AE0979F902DD2
:1019F000879F802D910D112408955058BB27AA2749
:101A00000E94150D0C94880E0E947A0E38F00E94E8
:101A1000810E20F039F49F3F19F426F40C94770ED0
:101A20000EF4E095E7FB0C94710EE92F0E94990EDD
:101A300058F3BA17620773078407950720F079F403
:101A4000A6F50C94BB0E0EF4E0950B2EBA2FA02D2C
:101A50000B01B90190010C01CA01A0011124FF275B
:101A6000591B99F0593F50F4503E68F11A16F04056
:101A7000A22F232F342F4427585FF3CF4695379555
:101A80002795A795F0405395C9F77EF41F16BA0B1A
:101A9000620B730B840BBAF09150A1F0FF0FBB1FC8
:101AA000661F771F881FC2F70EC0BA0F621F731F11
:101AB000841F48F4879577956795B795F7959E3F6E
:101AC00008F0B0CF9395880F08F09927EE0F9795FF
:101AD000879508950E944D0E08F481E008950E94B4
:101AE000830D0C94880E0E94810E58F00E947A0E8D
:101AF00040F029F45F3F29F00C94710E51110C94C1
:101B0000BC0E0C94770E0E94990E68F39923B1F3E2
:101B1000552391F3951B550BBB27AA276217730713
:101B2000840738F09F5F5F4F220F331F441FAA1FA7
:101B3000A9F335D00E2E3AF0E0E832D09150504063
:101B4000E695001CCAF72BD0FE2F29D0660F771F11
:101B5000881FBB1F261737074807AB07B0E809F0F7
:101B6000BB0B802DBF01FF2793585F4F3AF09E3F7C
:101B7000510578F00C94710E0C94BC0E5F3FE4F3A9
:101B8000983ED4F3869577956795B795F7959F5FBF
:101B9000C9F7880F911D9695879597F90895E1E00B
:101BA000660F771F881FBB1F621773078407BA076A
:101BB00020F0621B730B840BBA0BEE1F88F7E095C5
:101BC00008950E94A10E88F09F5798F0B92F992789
:101BD000B751B0F0E1F0660F771F881F991F1AF018
:101BE000BA95C9F714C0B13091F00E94BB0EB1E0B4
:101BF00008950C94BB0E672F782F8827B85F39F0B3
:101C0000B93FCCF3869577956795B395D9F73EF4B0
:101C100090958095709561957F4F8F4F9F4F089558
:101C2000E89409C097FB3EF4909580957095619576
:101C30007F4F8F4F9F4F9923A9F0F92F96E9BB272C
:101C40009395F695879577956795B795F111F8CFA8
:101C5000FAF4BB0F11F460FF1BC06F5F7F4F8F4F13
:101C60009F4F16C0882311F096E911C0772321F009
:101C70009EE8872F762F05C0662371F096E8862FA1
:101C800070E060E02AF09A95660F771F881FDAF7F8
:101C9000880F9695879597F90895990F0008550F25
:101CA000AA0BE0E8FEEF16161706E807F907C0F0E2
:101CB00012161306E407F50798F0621B730B840BEA
:101CC000950B39F40A2661F0232B242B252B21F4C4
:101CD00008950A2609F4A140A6958FEF811D811D64
:101CE000089597F99F6780E870E060E008959FEF9E
:101CF00080EC089500240A941616170618060906A3
:101D0000089500240A941216130614060506089571
:101D1000092E0394000C11F4882352F0BB0F40F4F9
:101D2000BF2B11F460FF04C06F5F7F4F8F4F9F4F39
:101D3000089557FD9058440F551F59F05F3F71F0BB
:101D40004795880F97FB991F61F09F3F79F0879522
:101D50000895121613061406551FF2CF4695F1DFAB
:101D600008C0161617061806991FF1CF869571053B
:101D7000610508940895E894BB2766277727CB016F
:101D800097F908950E944D0E08F48FEF08950E9470
:101D9000DA0E0C94880E0E947A0E38F00E94810EA2
:101DA00020F0952311F00C94710E0C94770E1124F1
:101DB0000C94BC0E0E94990E70F3959FC1F3950F81
:101DC00050E0551F629FF001729FBB27F00DB11DBF
:101DD000639FAA27F00DB11DAA1F649F6627B00D4F
:101DE000A11D661F829F2227B00DA11D621F739F38
:101DF000B00DA11D621F839FA00D611D221F749F46
:101E00003327A00D611D231F849F600D211D822F8C
:101E1000762F6A2F11249F5750409AF0F1F08823B3
:101E20004AF0EE0FFF1FBB1F661F771F881F9150E0
:101E30005040A9F79E3F510580F00C94710E0C9410
:101E4000BC0E5F3FE4F3983ED4F386957795679593
:101E5000B795F795E7959F5FC1F7FE2B880F911D0A
:101E60009695879597F908950E944D0E880B990BCA
:101E70000895DB018F939F930E94710FBF91AF91E3
:101E8000A29F800D911DA39F900DB29F900D1124D4
:101E90000895A1E21A2EAA1BBB1BFD010DC0AA1FAB
:101EA000BB1FEE1FFF1FA217B307E407F50720F0C3
:101EB000A21BB30BE40BF50B661F771F881F991F3E
:101EC0001A9469F760957095809590959B01AC0187
:101ED000BD01CF010895EE0FFF1F0590F491E02D95
:101EE00009940E94840FA59F900DB49F900DA49F0C
:101EF000800D911D11240895B7FF0C94710F0E945D
:101F0000710F821B930B0895A29FB001B39FC00174
:101F1000A39F700D811D1124911DB29F700D811D15
:101F20001124911D0895F894FFCF00000000500384
:101F3000B002DD029D030E03EC020003000000006E
:101F40001505B002BE03BD030D0A006E616E006987
:101F50006E66006F7666004143434944454E542007
:101F6000444554454354494F4E0053595354454DED
:101F700000536561742042656C7400416C636F6846
:101F80006F6C206E6F740056656869636C652053D2
:101F90007461727465640053656E64696E67204D88
:101FA00073670041542B434D47463D310041542B4C
:101FB000434D47533D222B39313939323235313295
:101FC000303137220D00437269746963616C2041BE
:101FD00063636964656E74204465746563746564E5
:101FE00000706C6561736520636865636B206C6F5E
:101FF000636174696F6E004750524D43004750470C
:10200000474100506F736974696F6E3A20006C61CC
:10201000743A006C6F673A004E6F6E2D43726974AC
:102020006963616C204163636964656E74004E6F1F
:10203000204D73672053656E7400416C636F686F49
:102040006C20006E6F742044657465637465640071
:107E0000112484B714BE81FFF0D085E080938100F7
:107E100082E08093C00088E18093C10086E0809377
:107E2000C20080E18093C4008EE0C9D0259A86E02C
:107E300020E33CEF91E0309385002093840096BBD3
:107E4000B09BFECF1D9AA8958150A9F7CC24DD24C4
:107E500088248394B5E0AB2EA1E19A2EF3E0BF2EE7
:107E6000A2D0813461F49FD0082FAFD0023811F036
:107E7000013811F484E001C083E08DD089C08234E0
:107E800011F484E103C0853419F485E0A6D080C0E4
:107E9000853579F488D0E82EFF2485D0082F10E0AE
:107EA000102F00270E291F29000F111F8ED06801E7
:107EB0006FC0863521F484E090D080E0DECF843638
:107EC00009F040C070D06FD0082F6DD080E0C81688
:107ED00080E7D80618F4F601B7BEE895C0E0D1E017
:107EE00062D089930C17E1F7F0E0CF16F0E7DF06D8
:107EF00018F0F601B7BEE89568D007B600FCFDCFD4
:107F0000A601A0E0B1E02C9130E011968C91119780
:107F100090E0982F8827822B932B1296FA010C0160
:107F200087BEE89511244E5F5F4FF1E0A038BF0790
:107F300051F7F601A7BEE89507B600FCFDCF97BE46
:107F4000E89526C08437B1F42ED02DD0F82E2BD052
:107F50003CD0F601EF2C8F010F5F1F4F84911BD097
:107F6000EA94F801C1F70894C11CD11CFA94CF0C13
:107F7000D11C0EC0853739F428D08EE10CD085E9AC
:107F80000AD08FE07ACF813511F488E018D01DD067
:107F900080E101D065CF982F8091C00085FFFCCF94
:107FA0009093C60008958091C00087FFFCCF809118
:107FB000C00084FD01C0A8958091C6000895E0E648
:107FC000F0E098E1908380830895EDDF803219F02E
:107FD00088E0F5DFFFCF84E1DECF1F93182FE3DFCA
:107FE0001150E9F7F2DF1F91089580E0E8DFEE27F6
:047FF000FF270994CA
:027FFE00040479
:00000001FF
